:10000000FCC016C1F3C3E8C2F6C212C111C110C1CF
:100010000FC10EC10DC10CC10BC14BC309C108C139
:1000200007C185C936CAABCA05CB1FCB76CBB7CBC8
:100030002C2000536176652076616C7565732C20E9
:100040004F4B3F0020204E65787420706572696FB9
:10005000643F00202D204C4F57004C44523A200062
:100060002020002020004F534343414C203D2000DE
:1000700050696E2E38206F75743A2031306B487A93
:10008000003A20004D6F6469667920454550524F13
:100090004D3A004F4B202D2052455345543F0061AF
:1000A000667465722000536574206461726B206C05
:1000B0006576656C00466F7220436F756E7465726D
:1000C0003A2000434C45415220414C4C204441547D
:1000D000413A00436F756E747320617265206E6FD4
:1000E00074203000526F6C6C6261636B20706572BB
:1000F000696F643F004368616E6765205374617285
:10010000744E756D3F0044656C74613A20003A206E
:100110000053656C6563743A200053657420746FF6
:1001200074616C2076616C75650053657475703A06
:1001300000207C0076312E31202863292032303196
:100140003400436F756E746572206F66207761743A
:100150006572004F4B3F005B4E4F5D005B5945534E
:100160005D0023230020202020202000536176659D
:1001700064204F4B2100F201E101D501C601B60117
:10018000A50197018601382E2053686F77204144DE
:10019000432073656E7300372E20536574204F53D0
:1001A0004343414C00362E204D6F646966792045EB
:1001B0004550524F4D00352E2053657420646172B6
:1001C0006B206C657600342E204E657720636F754A
:1001D0006E74657200332E20526F6C6C6261636BBB
:1001E00000322E204368616E67652076616C75650C
:1001F0007300312E20457869740011241FBECFE5AD
:10020000D2E0DEBFCDBF10E0A0E6B0E0E0E0FBE171
:1002100002C005900D92A636B107D9F720E0A6E6F8
:10022000B0E001C01D92A638B207E1F7DFD666CC78
:10023000E7CED79A8DE08A95F1F70000D6988DE049
:100240008A95F1F70000D7988DE08A95F1F70000C4
:100250000895D698DE98D798DF988DE08A95F1F7C3
:100260000000CF9907C0D79A8DE08A95F1F700007A
:10027000D69ADFCF0895882311F0D79801C0D79A76
:1002800088E08A95F1F7D6988DE08A95F1F700001D
:10029000D69A80E00895D79888E08A95F1F7D698A5
:1002A0008DE08A95F1F7000089B3D69A881F8827D8
:1002B000881F0895CF93DF93D82FC8E08D2F8078C3
:1002C000DADFDD0FC150D1F7DF91CF91E4CFCF93CB
:1002D000DF93D82FCFEFCF9905C08DE08A95F1F746
:1002E00000000BC0D79A8DE08A95F1F70000D69AEE
:1002F0008D2FE0DF882329F09CDFC15061F781E07A
:1003000001C080E0DF91CF910895882341F0E7ECB0
:10031000F0E03197F1F700C000008150F6CF08956A
:1003200090916400892BC6CFCF93C82F8EE4CFDF86
:10033000882329F081E080937000CF9108958C2F5D
:10034000EFDF8C2F8460ECDF8C2FEADFCF9171CF51
:1003500081E0DBDF80E00895CF93C82F81E0D5DF17
:100360008C2F807F8160E0DF8C2F8295807F816081
:10037000CF91DACFCF93C82F81E0C7DF8C2F807F5A
:10038000D3DF8C2F8295807FCFDF80E0CF910895DF
:100390001F93CF93DF931F92CDB7DEB7182F6983DA
:1003A000D7DF812F8295880F880F807C6981860F27
:1003B000815480680F90DF91CF911F91DBCF81E056
:1003C000D9DF84E1A2CFCF93C82F1092700041DF14
:1003D00088EC9BDF80E3A8DF8091700081111FC053
:1003E00089E293DF80E3A0DF81E08FDF80E39CDFA1
:1003F00081E08BDF80E298DF8C2F8062BBDF882377
:1004000011F091E00DC0DBDF86E0B4DF8111F9CFA0
:100410008CE0B0DF91E0811103C090E001C092E078
:10042000892FCF910895CF93DF93EC018991882391
:1004300011F092DFFBCFDF91CF910895CF93DF933F
:10044000FC018491EF012196882319F085DFFE01DC
:10045000F8CFDF91CF9108953F924F925F926F92C4
:100460007F928F929F92AF92BF92CF92DF92EF9244
:10047000FF920F931F93CF93DF936B017C01642E48
:10048000522E412C9AE0892E912CA12CB12CC42FF4
:10049000DD27C7FDD095CA58DF4F2EE2322E7724D4
:1004A0007394740C042D112707FD10950A581F4FE3
:1004B000C701B601A501940161DA605D7F4F8F4FDE
:1004C0009F4FF8016083761006C082E0782E740C8E
:1004D00038821EE201C010E3C701B601A5019401F4
:1004E0004DDA69017A01211531054105510511F0F7
:1004F000472CD5CF57FE03C0519420E301C020E222
:10050000E62DFF27E7FDF095EA58FF4F4EE2872DD5
:10051000992787FD90957514B4F41E3211F0761466
:1005200014F410E301C0122F31E0370DDC01AA589A
:10053000BF4F1C93361511F0732EE9CF739473944B
:1005400040831EE2E4CFFC01EA58FF4F10827A9408
:10055000872DA72DA81BA81768F4B0E0AA58BF4F95
:100560009C91E82FF0E0EA58FF4F20812C93908374
:100570008150EFCFDF91CF911F910F91FF90EF90BE
:10058000DF90CF90BF90AF909F908F907F906F90B3
:100590005F904F903F900895009759F02FEF30E70C
:1005A00042E0215030404040E1F700C00000019798
:1005B000F3CF0895E199FECF9FBB8EBBE09A8DB338
:1005C0000895E199FECFF8941CBA9FBB8EBB6DBB1A
:1005D000E29AE19A789408951F920F920FB60F92C3
:1005E00011248F9381E080936E008F910F900FBE46
:1005F0000F901F9018951F920F920FB60F92112413
:100600008F9388E181BD8BE481BD809184008F5FF1
:100610008093840080916300882329F08091630097
:1006200081508093630080916200882319F081508B
:100630008093620080916100882319F0815080933B
:10064000610080916800882371F081508093680078
:10065000811109C01092690080916000811103C06E
:1006600081E0809360008091600082301CF08150B6
:100670008093600080916D00882329F0CC9B03C09B
:10068000815080936D0080916E00882351F08150DD
:1006900080936E00811105C086B38095877080932A
:1006A0006F00379A369A8F910F900FBE0F901F9060
:1006B00018951F920F920FB60F9211242F933F930C
:1006C0008F939F9385B130916A00323059F491E055
:1006D00020917100821708F490E0909366001092C8
:1006E0006A0071C021E090917300891708F020E042
:1006F000311134C080916C00281709F461C08F3F1C
:1007000051F180916900811126C080916200882397
:1007100061F01092620080917400909175000197D1
:1007200090937500809374000FC021110DC08091CB
:1007300074009091750001969093750080937400F9
:10074000809185008093620080916000811103C0D8
:1007500081E08093600020936C0032C080916B0038
:10076000281771F18F3F51F180916900811126C0E6
:1007700080916100882361F0109261008091820075
:1007800090918300019790938300809382000FC023
:1007900021110DC080918200909183000196909369
:1007A0008300809382008091850080936100809116
:1007B0006000811103C081E08093600020936B0092
:1007C0003F5F30936A00379880916A0087B98091C3
:1007D0006A00882311F0379A369A9F918F913F9142
:1007E0002F910F900FBE0F901F9018951F920F9290
:1007F0000FB60F9211248F939F93CB992AC08091AB
:100800006200882359F010926200809174009091E8
:10081000750001979093750080937400809161003A
:10082000882359F01092610080918200909183009A
:100830000197909383008093820081E08093690008
:10084000109268009091600091110BC0809360003D
:1008500008C080916900882321F0809185008093F1
:100860006800CC9906C081E08093700080E5809399
:100870006D009F918F910F900FBE0F901F90189554
:10088000889590916A009813FBCF889590916A00A3
:100890009817D9F385B108958FE090E08BDE90E052
:1008A0000496880F991F880F991F0895AF92BF92E1
:1008B000CF92DF92EF92FF920F931F93CF93DF932C
:1008C000B82EEADFEC01BB2021F022960CE010E00C
:1008D00002C009E010E0C8016DDEA82EC801019633
:1008E00069DEC82ED12CE12CF12CFE2CED2CDC2C59
:1008F000CC24CA0CD11CE11CF11CC80102965ADEA2
:10090000482F50E060E070E0BA0155274427C40E3C
:10091000D51EE61EF71E0B2D10E0085F1F4F000FBF
:10092000111F011582E01807E0F40C171D07B1F044
:10093000C80140DEB82EC80101963CDE482F50E0C9
:1009400060E070E0762F652F542F44274B0D511D2A
:10095000611D711DC40ED51EE61EF71E0C5F1F4FD4
:10096000E0CFC701B601DF91CF911F910F91FF90AA
:10097000EF90DF90CF90BF90AF90089590E00796F2
:1009800019DEEACCCF93DF93C82F861718F4DCE783
:10099000D80F01C0D82FD61B8FE090E00BDE8C174C
:1009A00010F48D1710F48D2F01C08C2FDF91CF9193
:1009B00008951F93CF93DF938F3F71F4F8946111E3
:1009C00005C0609174007091750004C06091820050
:1009D00070918300789415C0C82FD0E0CC0FDD1F34
:1009E000C60FD11D2896CC0FDD1FCE01E3DD182FD9
:1009F000CE010196DFDD682F70E0762F6627610F4C
:100A0000711D80E090E025E042E026DD80917800D5
:100A10008E3251F4809176009FDC80917700803295
:100A200009F480E399DC03C082E691E007DD8BE303
:100A3000DF91CF911F9190CC1F93CF93DF93C82F5D
:100A40001091720064E081E08C0FA2DC8C2F96DFA5
:100A50008EE782DCD4E06C2F812FABDF61E0812F49
:100A600091DF182FD150B9F7DF91CF911F910895E1
:100A70002F923F925F926F927F928F929F92AF924E
:100A8000BF92CF92DF92EF92FF920F931F93CF937B
:100A9000DF93CDB7DEB728970FB6F894DEBF0FBE51
:100AA000CDBF982E64E081E0890D72DC892D66DF70
:100AB0008AE352DC892DFADE6B017C018FE090E045
:100AC00079DD20907200312CA82EB12C092D10E078
:100AD000085F1F4F2FEF221A320A3BE7231631041B
:100AE00010F0212C312C2A143B0481F13101660CC9
:100AF000771C600E711E660C771CC30101965ADDCF
:100B0000582EC30157DD882E652D70E080E090E0FF
:100B100020E03FEF4FEF5FEF6FD729833A834B839E
:100B20005C836D837E838F839887882D90E0A0E01F
:100B3000B0E029813A814B815C81281B390B4A0B3B
:100B40005B0BC20ED31EE41EF51EC4CF28E042E0AC
:100B5000C701B60181DC86E790E065DC8EE7FCDB4F
:100B6000692D8091720028960FB6F894DEBF0FBEF3
:100B7000CDBFDF91CF911F910F91FF90EF90DF904C
:100B8000CF90BF90AF909F908F907F906F905F902D
:100B90003F902F900ECFCF93C82F8091700081117E
:100BA00034C061E081E08C0FF3DB8C2FE7DE8091B5
:100BB0006900882311F08AE201C08AE3CDDB8C2F23
:100BC00075DEF894C11105C0209174003091750054
:100BD00004C020918200309183007894620F731FCB
:100BE000811D911D28E042E037DC86E790E01BDCA8
:100BF0008EE7B2DB6C2F8FEFDCDE8FE090E0DADC8B
:100C000061E0C0DE6C2FCF91D4CECF910895EF92EA
:100C1000FF920F931F93CF93DF93EC01F894009111
:100C20007400109175007894C5DC90E0980133272A
:100C30008217930719F0602FCE01C3DC7E018FEF7E
:100C4000E81AF80AC701B6DC612F772790E086170B
:100C5000970711F0C701B5DCF8940091820010915C
:100C6000830078947E0182E0E80EF11CC701A2DCCB
:100C700090E0980133278217930719F0602FC7017E
:100C8000A0DC2396CE0196DC612F772790E08617B3
:100C9000970741F0CE01DF91CF911F910F91FF9007
:100CA000EF908FCCDF91CF911F910F91FF90EF903C
:100CB00008954F925F926F927F92AF92BF92CF92C0
:100CC000DF92EF92FF920F931F93CF93DF932B014D
:100CD0003C01611571058105910509F454C0C42FCB
:100CE000D0E0CE0167DC182F5E018FEFA81AB80A9A
:100CF000C50160DCC82ED12CE12CF12CFE2CED2C92
:100D0000DC2CCC24C10ED11CE11CF11C8E010E5F29
:100D10001F4FC8014FDC90E0A0E0B0E0DC01992754
:100D20008827C80ED91EEA1EFB1EC40CD51CE61C63
:100D3000F71C412C512C32015394C701B601A30179
:100D400092013ED6CE013DDCC701B60120E030E085
:100D500041E050E035D6C22FA301920131D6622F77
:100D6000C5012FDC6C2FC801DF91CF911F910F912E
:100D7000FF90EF90DF90CF90BF90AF907F906F90FB
:100D80005F904F901ECCDF91CF911F910F91FF90FC
:100D9000EF90DF90CF90BF90AF907F906F905F907B
:100DA0004F9008951F93CF93DF9376DDEC01F89475
:100DB00001DC182FCE010196FDDB282F30E0322F09
:100DC0002227210F311D3093750020937400CE012E
:100DD0000296F0DB182FCE010396ECDB282F30E0D3
:100DE000322F2227210F311D309383002093820060
:100DF0007894CE01DF91CF911F91089585E691E01F
:100E00001DCBDDDA8CE691E019DB84E190E0C4CB08
:100E1000B19BFECF83E090E0BFDB10926F008FEFBD
:100E200080936300889580916F00811104C0809148
:100E300063008111F7CF90916F0081E0923009F04B
:100E400080E00895CF93DF93C0E0D1E081DA80ECB9
:100E500091DAD4DFCC2319F08CE591E002C087E56C
:100E600091E0ECDACBDF10926F0080916300882371
:100E700059F0889580916F008823B9F380916F00B5
:100E8000823019F0CD27E2CFC0E010926F008C2F96
:100E9000DF91CF910895CF92DF92EF92FF920F935F
:100EA0001F93CF93DF93D82FC62F8FE063DAFC2EEA
:100EB0001FEF00E36F2D6D0F82E06ADA109363007D
:100EC00010926F0080916300882309F481C0889597
:100ED00080916F00813069F4FA94F7FCFC2EEF2DBD
:100EE000FF27E7FDF095EA58FF4F80818E32A1F38E
:100EF000E1CF80916F00843071F4F394CF150CF43E
:100F0000F12CEF2DFF27E7FDF095EA58FF4F808188
:100F10008E3299F3CFCF80916F00823099F6109284
:100F20008400B19904C0809184008C30D0F380910A
:100F300084008C30D8F162E06D0F6C0F82E028DA0B
:100F400083E591E07BDA64DFD0E0C12CD12C76011F
:100F5000CD173CF1ED2FFF27E7FDF095EA58FF4F45
:100F600010811E32E1F0C701B6012AE030E040E016
:100F700050E042D5C901DA01103251F0C12ED12C16
:100F800020E3C21AD108EE24D7FCE094FE2C03C063
:100F9000C12CD12C7601C80ED91EEA1EFB1EDF5FC4
:100FA000D7CF8CE0E7D9B601C70117C0EF2DFF27D7
:100FB000E7FDF095EA58FF4F808191ED980F9A3048
:100FC00018F48F5F808301C000838081C5D972CF00
:100FD00010926F0060E070E090E0DF91CF911F9180
:100FE0000F91FF90EF90DF90CF900895CF93DF9314
:100FF0001F92CDB7DEB780E886BD16BC80E285BF04
:101000008FE28BBB87E088BB98E191BD2BE421BDCB
:1010100020E32BBF92BB80BD80E090E0CBDA8F3F16
:1010200029F461B780E090E0CCDA01C081BF82E0B2
:1010300090E0C0DA8093850086E090E0BBDA809390
:10104000730081E090E0B6DA80937100ABDECB995B
:1010500003C081E080936900789488E0B4D982E489
:1010600091E0ECD975D980EC85D984E391E0E6D99B
:1010700084E190E091DA17B880E183B98EE886B90F
:10108000E0E94E2E55245394889580917000882372
:1010900061F080916D008111F7CF88E094D98823A9
:1010A00099F380E580936D00EFCF90916600809179
:1010B0006000992371F081112AC080916300811131
:1010C00026C01092640088E055D98FEF80936000AD
:1010D0001EC0813011F08F3FD1F4809160008F3FAE
:1010E00041F488E08093640083E090E063DA8093C9
:1010F0006300809170008111C7CF8CE03BD980E004
:101100004ADD81E048DD1092600010926700809116
:101110006F00857009F46CC08091600087FD1CC46D
:101120008FE090E047DA182F8091670081110CC0A2
:1011300061E0812F27DC8093720080916F00843002
:1011400009F081E08093670003D980E813D980918A
:101150007200181718F4181B145801C0181B80913E
:101160006700813011F48EE601C080E7F5D881E395
:1011700091E064D9EDD880ECFDD8143610F023E06E
:1011800001C022E060916700812FECD3682F70E0EE
:1011900080E090E040E060D986E790E044D91436E2
:1011A00010F48CE7D9D860916700812FDBD38A30A7
:1011B00028F4CED880ECDED88DE2CED880916700BE
:1011C000813029F480E054DC81E052DC04C080E00E
:1011D00033DC81E031DC6091670080917200D2DB0A
:1011E0008093720010926F0084E6809360004CCF71
:1011F00080916F0081FF48CF809160008111ACC366
:101200004BDB1C0104DD8091700081113DCF1092F9
:101210008400B19904C0809184008831D0F380911A
:101220008400883108F430C300E0CC24CA94C7D8C5
:101230008AE291E003D98CD880EC9CD8E02FF0E0D2
:10124000EE0FFF1FEA58FE4F85919491F7D810E0FA
:10125000802F90E07C01E1E0EE1AF108C09263007B
:1012600010926F0080916300882309F475C38895FC
:1012700080916F008130F1F41123B9F0053071F7DE
:1012800021E0221A310820F422242A9433243394B2
:10129000123011F4B09B24C010928400B0992CC07D
:1012A000809184008C30D0F327C0015008F0BFCF6C
:1012B00007E0BDCF80916F00843059F5112319F1FB
:1012C000053061F6FFEF2F1A3F0A2FEF221621E0BB
:1012D000320610F0212C312C123031F4B29904C0B6
:1012E00081E090E059D9EDC110928400B29904C018
:1012F000809184008C30D0F3809184008C3008F48D
:10130000DFC112E0DEC10F5F083009F090CF00E0CE
:101310008ECF80916F00823009F0AFC287E0E8166F
:10132000F10408F019C3F701EF5EFF4F0994712C27
:101330001FEF01E044D88AE191E080D809D880EC21
:1013400019D881E191E07AD8872D18DB10936300DA
:1013500010926F0080916300882309F4FDC2889584
:1013600080916F00813029F4772009F4F5C2712C47
:10137000E1CF80916F00843011F47026DBCF809133
:101380006F00823039F7E4D780ECF4D7872DF6DA96
:101390008EE091E053D8872D89DAF894711005C05A
:1013A000209174003091750004C02091820030912A
:1013B00083004B015C01820E931EA11CB11C78942A
:1013C00028EF42E0C501B40147D886E790E02BD86A
:1013D00067E084E060DD20916F00223009F0AACF41
:1013E000711005C0209174003091750004C02091E7
:1013F0008200309183006B017C01C818D908EA088B
:10140000FB08B701A601420F531F611D711D40313A
:1014100057426105710560F1D2D786E091E00ED8A0
:10142000F7FE02C08DE298D7C701B601F7FE07C0EC
:1014300066277727CB016C197D098E099F0928E063
:1014400042E00AD886E790E0EED782D780EC92D7C8
:1014500085EF90E0F3D7DCDC882309F46BCF7110C3
:1014600002C049E001C04CE0C701B60122DC0FC058
:10147000C20ED31E711005C0D0927500C0927400C8
:1014800004C0D0928300C0928200C101C0DBB9DCED
:1014900051CF95D784EE90E0D1D785E58093630056
:1014A000D1DC882309F458C28091740090917500B2
:1014B000892B71F48091820090918300892B41F4F3
:1014C0008FE090E077D8882379F06FEF680F0DC038
:1014D00076D783ED90E0B2D785E580936300B2DCE8
:1014E000882309F439C2ECCF6BE7E62EF12CF4E047
:1014F000EF0EF11CEE0CFF1CEE0CFF1CF894C090DC
:101500007400D0907500C701698354D8B82EC70104
:10151000019650D8282F30E0322F22272B0D311D75
:101520002C0D3D1D3093750020937400C0908200F7
:10153000D0908300C70102963DD8B82EC70103960C
:1015400039D8282F30E0322F22272B0D311D2C0DBA
:101550003D1D3093830020938200C70158DB6981D1
:101560008FE090E02ED810927500109274001092C7
:10157000830010928200C1014ADB14DCEBC11FD74B
:1015800083EC90E05BD7F12C1FEF01E0E1D680EC1B
:10159000F1D685EB90E052D78F2DF0D910926F00E5
:1015A0001093630080916300882309F4D5C1889566
:1015B00080916F008823B1F380916F008230C1F574
:1015C000C7D68FE8D7D68F2DD9D93CDC882331F305
:1015D000F894F11007C0109275001092740009E0A1
:1015E00010E006C010928300109282000CE010E020
:1015F000789460E0C801E5D760E0C8010196E1D7C2
:1016000060E0C8010296DDD70F2D10E0085F1F4F84
:10161000000F111F60E0C801D4D760E0C801019637
:10162000D0D70C5F1F4F011522E0120798F393C12A
:10163000F026ACCFC4D686EA90E000D715E388D672
:1016400080EC98D68FE990E0F9D6812F85D68AE094
:1016500090E0A2D71150103391F782E011D96DEFCD
:10166000680F81E090E0ADD776C1112301F11092AF
:101670008400B19904C0809184008C30D0F38091B3
:1016800084008C3050F09BD683E990E0D7D6C0DB45
:10169000882309F461C1F894FFCF62E087E0FBDBA7
:1016A00080916F00823069F4C1018BD70BCE87D651
:1016B00084E890E0C3D611E022242394312C01C0A9
:1016C00011E0C10177D7B82E43D680EC53D683E220
:1016D00043D6C101A0E0B0E02DEF40E0BC01CD0158
:1016E000BBD686E790E09FD681E890E0A7D66B2D29
:1016F00070E080E090E02DEF40E0AED686E790E02D
:1017000092D67CDB25D683EC35D68EE033D61230EC
:1017100009F4B0C010926F00ADC051D680E790E0E0
:101720008DD65BBC4ABC80E18FBD89E08EBD1AB30B
:101730001072D59A0FEF0CD680EC1CD686E690E09E
:101740007DD661B770E080E090E023E040E084D691
:1017500086E790E068D610926F0000936300809156
:1017600063008823C1F0889580916F008823B9F3C6
:1017700080916F00843019F481B78F5F06C080912B
:101780006F00813021F481B7815081BFD4CF61B720
:1017900080E090E016D71111DFC0D598DDC0113080
:1017A00009F4DAC00CD610926F00D2D580E8E2D5E9
:1017B000809170008111D0C010E0812FDFD811110D
:1017C00003C06091620002C060916100662381F0F5
:1017D00070E07595679575956795882777FD809575
:1017E000982F22E040E038D686E790E01CD603C070
:1017F00083E690E023D68AE3AFD5812F41D8682FC6
:1018000070E080E090E023E040E026D686E790E0BC
:101810000AD680E690E012D61F5F123071F698D596
:1018200080ECA8D580916900882311F08AE201C07C
:1018300080E292D58AE590E001D682E021D8682F37
:1018400070E080E090E023E040E006D686E790E09C
:10185000EAD580916600882319F083E590E002C004
:1018600085E691E0EBD581E090E096D6C0926300EA
:1018700011E0F8CCC0926300F5CC113009F0F2CC45
:10188000073009F0EFCC91CF9AD584E490E0D6D51B
:1018900088E280936300D6DA882309F45DC08FD58F
:1018A00083E390E0CBD554D580EC64D580E066D856
:1018B0008EE752D5F894609174007091750080E0C5
:1018C00090E025E042E0C8D5789486E790E0ABD57B
:1018D00080E390E0B3D581E051D88EE73DD5F89410
:1018E000609182007091830080E090E025E042E00A
:1018F000B3D5789486E790E096D58ADA882361F1AB
:10190000F894C10184D98FE090E054D661E0680F6B
:101910006C3708F060E08FE090E053D643DA8C013A
:10192000609174007091750080E090E049E0C1D949
:10193000609182007091830080E090E04CE0B9D922
:101940001092750010927400109283001092820021
:10195000C8015DD9789455DA10926F008FEF8093AB
:101960006300BBCB991B79E004C0991F961708F060
:10197000961B881F7A95C9F780950895A1E21A2EC3
:10198000AA1BBB1BFD010DC0AA1FBB1FEE1FFF1F23
:10199000A217B307E407F50720F0A21BB30BE40B73
:1019A000F50B661F771F881F991F1A9469F76095BA
:1019B0007095809590959B01AC01BD01CF01089574
:1019C000052E97FB16F400940FD057FD05D0D6DFF7
:1019D00007FC02D046F408C05095409530952195FB
:1019E0003F4F4F4F5F4F089590958095709561954B
:1019F0007F4F8F4F9F4F089568940013E894A0E0A5
:101A0000B0E0E4E0FDE01DC0EFEFE7F959016A0145
:101A10005E23550FEE08FE2C87019B01AC019E232F
:101A2000990F660B762FCB013BD0CDB7DEB7EAE03E
:101A300024C02F923F924F925F926F927F928F922B
:101A40009F92AF92BF92CF92DF92EF92FF920F934D
:101A50001F93CF93DF93CDB7DEB7CA1BDB0B0FB657
:101A6000F894DEBF0FBECDBF09942A883988488814
:101A70005F846E847D848C849B84AA84B984C884AA
:101A8000DF80EE80FD800C811B81AA81B981CE0FA1
:101A9000D11D0FB6F894DEBF0FBECDBFED01089586
:101AA000DF93CF939F92A0E49A2E0024D001E0010F
:101AB000F00116950795F794E794D794C794B794D7
:101AC000A79448F41068A20FB31FC41FD51FE61FC8
:101AD000F71F081E191E220F331F441F551F661FB4
:101AE000771F881F991F9A9421F79D01AE01BF01AE
:101AF000C00111249F90CF91DF910895F894FFCFFA
:061B00000108087808004E
:00000001FF
